:020000040802F0
:10000000C0DB012011950208010402080304020864
:10001000070402080B0402080F0402080000000095
:1000200000000000000000000000000013040208AF
:100030001504020800000000170402081904020851
:100040002B9502082B9502082B950208A7DF0208C2
:100050002B9502082B9502082B9502082B95020878
:100060002B9502082B9502082B9502082B95020868
:100070002B9502082B9502082B9502082B95020858
:100080002B9502082B9502082B9502082B95020848
:100090002B9502082B9502082B9502082B95020838
:1000A0002B950208D5D802082B9502082B9502083B
:1000B0002B950208F7D802082B9502082B95020809
:1000C0002B9502082B9502082B9502082B95020808
:1000D0002B9502082B950208FD3703082B95020883
:1000E0002B95020889DF02082B9502082B95020840
:1000F0002B9502082B9502082B9502082B950208D8
:100100002B9502082B9502082B9502082B950208C7
:100110002B950208F53803082B9502082B95020849
:100120001DD702082B9502082B9502082B95020873
:100130002B9502082B9502082B9502082B95020897
:100140002B9502082B9502082B950208CDAA0308CF
:100150002B9502082B9502082B9502082B95020877
:100160002B9502082B9502082B9502082B95020867
:100170002B9502082B9502082B9502082B95020857
:100180002B9502082B95020800F002F800F05CF8AD
:100190000AA090E8000C82448344AAF10107DA45E2
:1001A00001D100F051F8AFF2090EBAE80F0013F0D8
:1001B000010F18BFFB1A43F00103184700C00100EC
:1001C00020C001000A444FF0000C10F8013B13F06E
:1001D000070408BF10F8014B1D1108BF10F8015BA0
:1001E000641E05D010F8016B641E01F8016BF9D193
:1001F00013F0080F1EBF10F8014BAD1C0C1B09D1EA
:100200006D1E58BF01F801CBFAD505E014F8016B5B
:1002100001F8016B6D1EF9D59142D6D370470000ED
:100220000023002400250026103A28BF78C1FBD8FF
:10023000520728BF30C148BF0B6070471FB51BF085
:1002400002FD1FBD10B510BD1AF08CFE1146FFF760
:10025000F5FF00F009F81AF0AAFE03B4FFF7F2FF69
:1002600003BC13F07BFA000008B55A485A490860ED
:100270004FF4A06009F0C4FEA82013F0EDF912F0CD
:1002800067FE12F085FE12F06FFA44F29F1140F201
:10029000F3100DF0C5FA0DF061FB0CF0B1FE0DF09E
:1002A000E0FE0DF08FFD0FF0C7F800201AF0D1FC32
:1002B00016F05AFE49490122886849A114F03EFF10
:1002C0004848494B494A01210090494817F008F82D
:1002D00008F009FE00F0CEF90EF080FF0CF010FEE1
:1002E00010F018F806F013FD01200DF0C0FE12F01A
:1002F00069FE05F0D1FD01F051FF01F041FF03F06F
:1003000083FB07F0B8FB01203A49087037E0002072
:10031000394908703549364817F01AFA37480088C5
:100320004FF6FF71884204DA34480088401C334994
:10033000088000F011FA00F0A7FA01F03DFF06F086
:10034000CEFE04F006FE04F01EFE05F04AF805F0AD
:1003500038FE05F09CFC05F0A3FD05F043FE05F01A
:10036000A2FE05F003FF06F007FA05F02AFB05F0F0
:10037000D9FB12F0C7FD02F0AEFE05F048FAC6E761
:100380002DE9F04788B080460D4614461E46DDE94B
:10039000117ADDF8409005F11400400240EA441063
:1003A000304380B2ADF804004FEAC92040EA47105C
:1003B00040EA5A0080B2ADF806006946404615F0A2
:1003C00014FE08B0BDE8F087002001210A4A117030
:1003D000704700000000020808ED00E058250020EA
:1003E000323A0000F4020020DC020020600300200A
:1003F000E4030020AC010020F102002000000020F6
:10040000704700BFFEE700BFFEE700BFFEE700BF8A
:10041000FEE7704770477047704700000CB500203A
:10042000019000907648006840F48030744908607C
:1004300000BF7348006800F4003000900198401C31
:100440000190009818B90198B0F5A04FF1D16C480F
:10045000006800F4003010B10120009001E000209D
:1004600000900098012846D165484030006840F06F
:1004700080506349403108606248006840F4404061
:10048000604908605E48083000685D4908310860CE
:100490000846006840F4004008600846006840F4E0
:1004A000A05008605848091F0860081F006840F005
:1004B0008070091F086000BF5148006800F000709C
:1004C0000028F9D040F20570504908604C480830C7
:1004D000006820F003004A490831086008460068B7
:1004E00040F00200086000BF45480830006800F096
:1004F0000C000828F8D10CBD10B54548006840F440
:100500007000434908603E48006840F001003C49E3
:10051000086000203A4908310860394800683D49C0
:100520000840374908603C48091D0860081F0068FA
:1005300020F48020091F0860002031490C31086038
:10054000FFF76CFF4FF0006031498039086010BD43
:1005500070B500200022022300240221284D083516
:100560002D6805F00C0020B1042806D0082834D1ED
:1005700007E02A4D2A4E356033E02A4D284E35607B
:100580002FE01F4D2D1D2D68C5F380541C4D2D1DD2
:100590002D6805F03F0154B1224DB5FBF1F5184E21
:1005A000361D3668C6F3881605FB06F209E01B4DBA
:1005B000B5FBF1F5124E361D3668C6F3881605FBFD
:1005C00006F20F4D2D1D2D68C5F301456D1C6B0006
:1005D000B2FBF3F5124E356003E0104D104E35605E
:1005E00000BF00BF064D08352D68C5F303150E4E3C
:1005F000705D0B4D2D68C540094E356070BD000023
:10060000003802400070004008544007003C02409F
:1006100088ED00E0FFFFF6FE103000240024F40017
:100620000400002000127A0008000020FE4909782A
:10063000814203D0FC490978FB4A5170FA4908709D
:100640000121F94A91707047F74908700121F64A73
:1006500091707047F44908784978F34A117011464F
:100660004870012191707047002202708180828859
:100670004280704700B5ED480088ED49088014219C
:10068000EC48FFF7F1FF1421EB48FFF7EDFF1421D1
:10069000EA48FFF7E9FF1421E948FFF7E5FF1421D5
:1006A000E848FFF7E1FF1421E748FFF7DDFF1421D9
:1006B000E648FFF7D9FF1421E548FFF7D5FF1421DD
:1006C000E448FFF7D1FF1421E348FFF7CDFF1421E1
:1006D000E248FFF7C9FF0A21E148FFF7C5FF4FF4E1
:1006E0009661E048FFF7C0FF1421DF48FFF7BCFF29
:1006F0000121DE48FFF7B8FF1421DD48FFF7B4FF02
:100700000A21DC48FFF7B0FF0121DB48FFF7ACFF0F
:100710001421DA48FFF7A8FF1421D948FFF7A4FFF6
:1007200000BD10B58388A3B143888B4203DD4388A5
:100730005B1A43800FE08388448823449AB28A423C
:1007400002DB531A438001E0838843800123037056
:1007500001E00123037010BD00B5B4480088C94909
:10076000088008460088B2490988884207DBC548E6
:100770000088AF490988401AC349088006E0C1488B
:100780000088AB490988401ABF490880BD480088E5
:10079000A7490880BC480188A648FFF7C2FFBA48AD
:1007A0000188A548FFF7BDFFB7480188A348FFF7B8
:1007B000B8FFB5480188A248FFF7B3FFB2480188E7
:1007C000A048FFF7AEFFB04801889F48FFF7A9FF98
:1007D000AD4801889D48FFF7A4FFAB4801889C48BD
:1007E000FFF79FFFA84801889A48FFF79AFFA6489D
:1007F00001889948FFF795FFA34801889748FFF7BC
:1008000090FFA14801889648FFF78BFF9E4801881A
:100810009448FFF786FF9C4801889348FFF781FFC3
:10082000994801889148FFF77CFF974801889048D4
:10083000FFF777FF944801888E48FFF772FF9248D0
:1008400001888D48FFF76DFF8F4801888B48FFF7BF
:1008500068FF8D4801888A48FFF763FF00BD10B527
:100860008A480088752806D1894800880DF0FFFB6A
:1008700040200EF00EF80020864908804FF4966163
:100880007848FFF7F1FE10BD2DE9F0472DED048B00
:100890004FF00009002600277F480DF035FC814607
:1008A000B9F1020F41F0A482FFF7D9FF7A480DF0A9
:1008B00033FC0546402D09D177480DF034FC054640
:1008C00076480580BDEC048BBDE8F08772480DF0DA
:1008D0002AFC044640F29A41681A8D4201F0EE80EB
:1008E0004EDC40F2C911A5EB01008D4272D01CDC38
:1008F000FA2D70D00BDCA5F1F0000A2881F0778288
:10090000DFE800F0F3F2F1F0EFEEEDECEBEAA5F545
:10091000DD700828F2D2DFE810F0AB050C062C06DB
:100920004C065E0670068A06A406222872D00DDCEC
:10093000A0F11A000828E1D2DFE810F0D6060A0775
:100940002A0759076B077D079707B10740F2B922BD
:10095000811A90425FD00BDCA0F2232000285BD0EC
:100960006B285AD0942859D0952841F04082F4E35E
:10097000012901F0D580162951D01729F5D1EDE3D1
:10098000B0F5A77F4CD031DC80284AD016DC79281E
:1009900048D00ADC012801F0C2800D2801F0F08067
:1009A000752840D07628E0D11EE37A2878D07B28BD
:1009B00077D07E2876D07F28D7D1E7E2C22872D0C0
:1009C0000ADC832870D084286FD0BE286ED0BF2860
:1009D000CBD1FBE3F8E346E2C42868D0B0F5A67FAC
:1009E00066D0A0F24D100028BFD1EEE340F21922EC
:1009F000811A904201F08E8179DC40F2E312A0EB83
:100A00000201904201F01C815BDCA0F24F10002833
:100A10006CD04EE0F3E3F3E3F3E3F3E3F3E3F3E368
:100A2000F3E30BE338E359E296000020F0010020E5
:100A300092000020180000201E0000202A00002044
:100A400030000020360000203C0000204200002042
:100A5000480000204E000020540000205A000020D2
:100A600060000020660000206C0000207200002062
:100A700078000020240000207E0000208400002058
:100A80008A0000209000002094000020E200002056
:100A9000E4000020E0000020AC240020C000002082
:100AA00033E2B8E20FE3CCE387E2DEE257E321E38F
:100AB000FBE305287ED00C287DD0362888D101F0B4
:100AC0009BB8012901F0CC80342901F0F58035294B
:100AD0008AD101F008B90AE08AE14EE112E1D6E0DC
:100AE0009DE08FE0FBE373E048E01FE0F8E340F6B1
:100AF0006D32881A914201F06B810CDC012901F002
:100B00001581022901F02981032901F03D810C2979
:100B1000D4D101F04EB9B0F5C07F01F0B180B0F58D
:100B2000007F6ED0B0F5047FC8D1FAE320B21AF08E
:100B3000C9FC41EC190B9FEDFE0B53EC102B1AF086
:100B400069FB41EC180B1AF07FFAFB4988630846F1
:100B5000D0ED0E0AB0EE600ABF200CF028FC002099
:100B6000F54981F83000084690F83010BE200CF0AE
:100B700060FB0620FFF75AFD01F039B920461AF054
:100B8000B8FC41EC190B9FEDED0B53EC102B1AF058
:100B900041FB41EC180B1AF057FAEA49C8600846C5
:100BA000D0ED030AB0EE600A40F249100CF0FFFBF2
:100BB000002001E0EEE3EEE3E24908720846017A24
:100BC0004FF4A4700CF035FB0620FFF72FFDD3E7A0
:100BD000DD48048000881E2802DD1E20DA490880D6
:100BE000D94800880F2802DA0F20D7490880D64854
:100BF000018840F28C500CF085FB0620FFF716FDB3
:100C0000BAE7FCE3D1480480018840F2B6500CF00A
:100C100079FBFFF724FE0620FFF708FDACE7CC497F
:100C20000C70CC48007840B9CB480278CB480178AA
:100C3000C74800780DF00BF925E0C54800780DF0A5
:100C400001FAC7490870C74800780DF0FBF9C5499B
:100C50000870C54800780DF0F5F9C3490870C3481D
:100C600000780DF0EFF9C1490870C14800780DF027
:100C7000E9F9BF490870BF4800780DF0E3F9BD49B4
:100C800008700DF00DFD0620FFF7D0FC74E70C2C6A
:100C900000DD0C24B1490C70AE48007840B9AE4874
:100CA000027808460178AA4800780DF0D0F825E0CF
:100CB000AB4800780DF0C6F9A9490870A74800783C
:100CC0000DF0C0F9A7490870A74800780DF0BAF9EF
:100CD000A5490870A54800780DF0B4F9A34908703B
:100CE000A34800780DF0AEF9A1490870A14800783A
:100CF0000DF0A8F99F4908700DF0D2FC0620FFF70F
:100D000095FC39E71F2C00DD1F2493490C70914896
:100D1000007840B908460278904801788C480078FD
:100D20000DF095F825E08E4800780DF08BF98C4990
:100D300008708C4800780DF085F98A49087086485B
:100D400000780DF07FF988490870884800780DF028
:100D500079F986490870864800780DF073F984495E
:100D60000870844800780DF06DF9824908700DF024
:100D700097FC0620FFF75AFCFEE6182C00DD18242D
:100D80007D490C707348007840B97C4802787C48F3
:100D90000178794800780DF065F825E07048007812
:100DA0000DF050F96E4908706E4800780DF04AF960
:100DB0006C4908706C4800780DF044F96A49087075
:100DC0006D4800780DF03EF9684908706848007871
:100DD0000DF038F966490870664800780DF032F970
:100DE000644908700DF05CFC0620FFF71FFCC3E6A9
:100DF0003B2C00DD3B2462490C705648007840B91A
:100E00005E480278084601785B4800780DF02AF8C1
:100E100025E0534800780DF015F951490870514804
:100E200000780DF00FF94F4908704F4800780DF029
:100E300009F94D4908704D4800780DF003F94B4908
:100E400008704F4800780DF0FDF84949087049488E
:100E500000780DF0F7F8474908700DF021FC0620E6
:100E6000FFF7E4FB88E63B2C00DD3B2443490C7094
:100E70003848007840B908460278414801783E4831
:100E800000780CF0EFFF25E0354800780DF0DAF837
:100E900033490870334800780DF0D4F831490870B0
:100EA000314800780DF0CEF82F4908702F480078AF
:100EB0000DF0C8F82D4908702D4800780DF0C2F8E3
:100EC0002B4908702D4800780DF0BCF829490870AE
:100ED0000DF0E6FB0620FFF7A9FB4DE600EE104AF9
:100EE000B8EE400ADFED270A80EE201A264880ED92
:100EF000001AD0ED000AB0EE600A4FF402700CF058
:100F000056FA5420FFF792FB36E600EE104AB8EE90
:100F1000400A1D4880ED010AD0ED010AB0EE600ADA
:100F20004FF403700CF043FA5420FFF77FFB23E6E5
:100F30000000000000002440A40B0020000000007E
:100F400000005940900B0020C8010020E60000205E
:100F5000FC010020AD010020FE010020FD01002069
:100F60000702002008020020090200200B020020D6
:100F70000C0200200D020020FF01002001020020D1
:100F80000002002000401C46B80A002000EE104A73
:100F9000B8EE400A5FED050A80EE201AFE4880EDAB
:100FA000021AD0ED020AB0EE600A4FF404700CF0A1
:100FB000FEF95420FFF73AFBDEE500EE104AB8EEEA
:100FC000400ADFEDF60A80EE201AF34880ED031A9E
:100FD000D0ED030AB0EE600A4FF405700CF0E7F9AB
:100FE0005420FFF723FBC7E500EE104AB8EE400A95
:100FF0005FED1C0A80EE201AE94880ED001AD0ED62
:10100000000AB0EE600A4FF434700CF0D0F95420AE
:10101000FFF70CFBB0E500EE104AB8EE400AE048DE
:1010200080ED010AD0ED010AB0EE600A4FF4357090
:101030000CF0BDF95420FFF7F9FA9DE500EE104AD7
:10104000B8EE400A5FED310A80EE201AD44880EDF8
:10105000021AD0ED020AB0EE600A4FF436700CF0BE
:10106000A6F95420FFF7E2FA86E500EE104AB8EE42
:10107000400ADFEDCA0A80EE201AC94880ED031A43
:10108000D0ED030AB0EE600A4FF437700CF08FF920
:101090005420FFF7CBFA6FE500EE104AB8EE400A95
:1010A0005FED480A80EE201ABE4880ED001AD0EDB0
:1010B000000AB0EE600A4FF4A0700CF078F95420EA
:1010C000FFF7B4FA58E500EE104AB8EE400ADFED3B
:1010D000B30A80EE201AB34880ED011AD0ED010A60
:1010E000B0EE600A4FF4A2700CF061F95420FFF7E3
:1010F0009DFA41E500EE104AB8EE400AF2EE040A0D
:1011000080EE201AA84880ED0D1A90ED0D0ADFED53
:10111000A70AB4EEE00AF1EE10FA04DD9FEDA30A8F
:1011200080ED0D0A0DE0A04890ED0D0ADFED9B0A61
:10113000B4EEE00AF1EE10FA03D29FED980A80EDCA
:101140000D0A9948D0ED0D0AB0EE600AFA200CF0B5
:101150002EF95620FFF76AFA0EE5FCE3FCE300EEF9
:10116000104AB8EE400AF2EE040A80EE201A8E48C9
:1011700080ED011A90ED010ADFED8C0AB4EEE00A71
:10118000F1EE10FA04DD9FED890A80ED010A0DE011
:10119000854890ED010ADFED810AB4EEE00AF1EE38
:1011A00010FA03D29FED7D0A80ED010A7E48D0ED52
:1011B000010AB0EE600A40F28E200CF0F8F85620DA
:1011C000FFF734FAD8E401E086E1C9E000EE104A06
:1011D000B8EE400AF2EE040A80EE201A724880ED62
:1011E000051A90ED050ADFED710AB4EEE00AF1EEA2
:1011F00010FA0BDD9FED6D0A80ED050A14E046E262
:10120000F3E362E3ADE3F1E3F1E37CE0664890ED04
:10121000050ADFED620AB4EEE00AF1EE10FA03D23D
:101220009FED5E0A80ED050A5F48D0ED050AB0EE3D
:10123000600A40F256300CF0BAF85620FFF7F6F983
:101240009AE400EE104AB8EE400AF2EE040A80EE8C
:10125000201A554880ED091A90ED090ADFED530A6E
:10126000B4EEE00AF1EE10FA04DD9FED500A80EDD5
:10127000090A0DE04C4890ED090ADFED480AB4EE8A
:10128000E00AF1EE10FA03D29FED440A80ED090A5C
:101290004548D0ED090AB0EE600A40F214500CF057
:1012A00086F85620FFF7C2F966E4FFE700EE104A21
:1012B000B8EE400AF2EE040A80EE201A364880EDBD
:1012C000041A90ED040ADFED3A0AB4EEE00AF1EEFA
:1012D00010FA06D29FED360A80ED040A0FE002E212
:1012E0007EE02D4890ED040AF7EE000AB4EEE00A25
:1012F000F1EE10FA03DDB7EE000A80ED040A582083
:10130000FFF794F938E400EE104AB8EE400AF2EE26
:10131000040A80EE201A224880ED041A90ED040A97
:1013200000E042E3DFED220AB4EEE00AF1EE10FA4B
:1013300004D29FED1F0A80ED040A0DE0184890EDDD
:10134000040AF7EE000AB4EEE00AF1EE10FA03DD4B
:10135000B7EE000A80ED040A5820FFF767F90BE4A6
:101360000D48D0ED040AB2EE041AB6EE000A00EE03
:10137000810ABCEEC00A10EE100AC6B200EE104A96
:10138000B8EE400ADFED0B0A80EE201A0A4800EBA7
:10139000860013E05BE050E0B80A00200000C8427D
:1013A000240B0020900B0020A40B00200000F04232
:1013B000CDCCCC3D00007A44280C002080ED001AF2
:1013C000FE4901EB8601D1ED000AB0EE600AB100E2
:1013D00001F2DC500BF0EBFF5820FFF727F90FE488
:1013E000F748D0ED040AB2EE041AB6EE000A00EE99
:1013F000810ABCEEC00A10EE100AC7B200E089E212
:1014000000EE104AB8EE400A5FED160A80EE201A90
:10141000EC4800EB870080ED001AEA4901EB8701F8
:10142000D1ED000AB0EE600AB90001F5C3600BF01F
:10143000BEFF5820FFF7FAF828E4E348048001884B
:101440001E200BF05FFF6020FFF7F0F81EE400EEB7
:10145000104AB8EE400ADD4880ED000A90ED000A1F
:1014600040F2BA500BF0A3FF5820FFF7DFF80DE46D
:1014700000EE104AB8EE400AF2EE040A80EE201A9E
:10148000D34880ED041A90ED040A5FED370AB4EEFC
:10149000E00AF1EE10FA04D21FED3B0A80ED040AD7
:1014A0000DE0CB4890ED040AF7EE000AB4EEE00A36
:1014B000F1EE10FA03DDB7EE000A80ED040AC4482D
:1014C000D0ED040AB0EE600A4FF406700BF06FFF27
:1014D0000820FFF7ABF814E400EE104AB8EE400A1B
:1014E000F2EE040A80EE201AB94880ED051A90ED5C
:1014F000050A5FED510AB4EEE00AF1EE10FA04D2EB
:101500001FED550A80ED050A0DE0B14890ED050A82
:10151000DFEDB00AB4EEE00AF1EE10FA03DD9FED64
:10152000AD0A80ED050A07F055FF0820FFF77EF8A9
:1015300022E4A74880694FF46161B0FBF1F201FB3E
:101540001200C4EB4411C1EB042100EB0110A049CF
:101550008861084680693C2801D23C2088619C480B
:1015600081694FF408700BF0FFFE0820FFF75EF86A
:101570003DE43B2C00DD3B24954880694FF46161DC
:10158000B0FBF1F04843C4EB041100EB810090493B
:101590008861084680693C2801D23C2088618C48DB
:1015A00081694FF408700BF0DFFE0820FFF73EF86A
:1015B00099E087490C770846007F172801DD17203E
:1015C00008778348017F4FF409700BF032FE082042
:1015D000FFF72CF887E07E494C770846407F3B2890
:1015E00001DD3B2048777A48417F40F225200BF00F
:1015F00020FE0820FFF71AF8F9E37548006A4FF457
:101600006161B0FBF1F201FB1200C4EB4411C1EBCC
:10161000042100EB01106E4908620846016A40F29D
:1016200029200BF0A1FE0820FFF700F8DFE33B2C98
:1016300000DD3B246648006A4FF46161B0FBF1F0C5
:101640004843C4EB041100EB81006149086208467D
:10165000016A40F229200BF087FE0820FEF7E6FF22
:10166000C5E35B4981F82440084690F8240001282E
:1016700002DA012081F82400554890F8241040F245
:101680002D200BF0D6FD0820FEF7D0FFAFE300EED3
:10169000104AB8EE400AF2EE040A80EE201A4848DA
:1016A00080ED051A90ED050A5FEDBF0AB4EEE00A81
:1016B000F1EE10FA04D21FEDC20A80ED050A0DE02A
:1016C0003F4890ED050ADFED430AB4EEE00AF1EE83
:1016D00010FA03DD9FED3F0A80ED050A07F07AFE60
:1016E0000A20FEF7A3FF82E300EE104AB8EE400A9C
:1016F000F2EE040A80EE201A314880ED041A90EDD3
:10170000040A5FEDD50AB4EEE00AF1EE10FA04D255
:101710001FEDD90A80ED040A0DE0294890ED040A76
:10172000F7EE000AB4EEE00AF1EE10FA03DDB7EED0
:10173000000A80ED040A2248D0ED040AB0EE600AE7
:101740004FF438700BF033FE0A20FEF76FFF4EE3C4
:101750001B4880694FF46161B0FBF1F201FB12009C
:10176000C4EB4411C1EB042100EB01101449886162
:10177000084680693C2801D23C2088611048816974
:101780004FF43A700BF0F0FD0A20FEF74FFF2EE306
:101790003B2C00DD3B240A4880694FF46161B0FBBB
:1017A000F1F04843C4EB041100EB81000449886167
:1017B000084680693C2810D23C200DE0280C00200F
:1017C000240B0020580C0020AA010020E800002073
:1017D000B80A00200080BB458861F84881694FF451
:1017E0003A700BF0C1FD0A20FEF720FFFFE2F3493B
:1017F0000C770846007F172801DD17200877EF488F
:10180000017F4FF43B700BF014FD0A20FEF70EFF32
:10181000EDE2EA494C770846407F3B2801DD3B205A
:101820004877E648417F40F2ED200BF002FD0A20A8
:10183000FEF7FCFEDBE2E148006A4FF46161B0FBB9
:10184000F1F201FB1200C4EB4411C1EB042100EBE7
:101850000110DA4908620846016A40F2F1200BF0F3
:1018600083FD0A20FEF7E2FEC1E23B2C00DD3B24B3
:10187000D248006A4FF46161B0FBF1F04843C4EB19
:10188000041100EB8100CD4908620846016A40F26C
:10189000F1200BF069FD0A20FEF7C8FEA7E2C74958
:1018A00081F82440084690F82400012802DA01203B
:1018B00081F82400C14890F8241040F2F5200BF084
:1018C000B8FC0A20FEF7B2FE91E2BD48058804800C
:1018D000008810B9BA48058007E0B948008842F28C
:1018E0000F71884201DDB6480580B648007868B9B6
:1018F000B4484088B2490988884207DAB14840882C
:10190000AF4908803C20FEF791FE02E03220FEF74E
:101910008DFE6CE2AA4805880480008810B9A848AA
:10192000058007E0A648008842F20F71884201DD79
:10193000A3480580A348007878B9A2484088A04908
:101940000988884209DA9F4840889D4908803C20E0
:10195000FEF76CFE04E081E07FE03E20FEF766FECD
:1019600045E2994805880480008810B996480580AA
:1019700006E095480088B0F57A7F01DD9248058041
:101980009248007868B9914840888F490988884210
:1019900007DA8E4840888C4908803D20FEF746FED5
:1019A00002E03420FEF742FE21E2874805880480E9
:1019B000008810B98448058006E083480088B0F5A7
:1019C0007A7F01DD804805808048007880B97F48B3
:1019D00040887D49098888420ADA7C4840887A49EB
:1019E00008803D20FEF722FE05E068E005E003E008
:1019F0004120FEF71BFEFAE100BF754804807148E4
:101A0000007848B96F48408871490988884203DAEC
:101A10006C4840886E4908806D48008842F20F711A
:101A2000884202DD08466A4908806648408828B135
:101A30006748008810B90120654908806448028819
:101A4000042140F284400CF013FC61480288042118
:101A500040F26C400CF00CFCC9E100BF5D48048012
:101A60005848007848B9574840885A4909888842F8
:101A700003DA54484088574908805648008842F2A3
:101A80000F71884202DD0846524908804D4840885F
:101A900028B15048008810B901204E4908804D48AF
:101AA0000288042140F289400CF0E2FB4948028898
:101AB000042140F271400CF0DBFB98E100BF464886
:101AC00004804248007848B9404840884249098823
:101AD000884203DA3D4840883F4908803E480088F4
:101AE00042F20F71884202DD08463B4908803748C0
:101AF000408828B13848008810B90120364908804C
:101B000035480288042140F28E400CF0B1FB324887
:101B10000288042140F276400CF0AAFB67E100BF86
:101B20002E4804802948007848B9284840882B4925
:101B30000988884203DA25484088284908802748D0
:101B4000008842F20F71884202DD0846234908806E
:101B50001E48408828B12148008810B901201F493B
:101B600008801E480288042140F293400CF080FB5C
:101B70001A480288042140F27B400CF079FB36E1E0
:101B800040F22730844203D015480088844203D1B4
:101B90005420FEF74BFD2EE0572C03D101201149B4
:101BA000087028E040F2DC70844221D10D480078B2
:101BB000012819D16620FEF739FD1CE0240B002016
:101BC000C40000209C010020C6000020A0010020CD
:101BD000D0000020D2000020D4000020D600002039
:101BE000AA010020DE0000200020F749087002E072
:101BF0000020F5490870FAE02246042140F21E60F8
:101C00000CF036FBF1A141F270000CF0C8FA20464E
:101C10000DF0D0FB01280DD1EE480480EEA141F279
:101C200070000CF0BCFAEB48018840F2B4500BF0A5
:101C300069FB04E0EAA141F270000CF0B0FAD6E0D2
:101C40004EF66020844200DD0446E74804800188A7
:101C500040F2E7100BF056FB6620FEF7E7FCC6E00B
:101C60004EF66020844200DD0446E048048001888E
:101C70004FF4F9700BF046FB6620FEF7D7FCB6E098
:101C8000204619F036FC41EC190B9FEDD90B53ECB3
:101C9000102B19F0BFFA41EC180B19F0D5F9D64901
:101CA0000860084690ED000A40F21E500BF07FFBE2
:101CB0006620FEF7BBFC9AE000EE104AB8EE400A40
:101CC000F2EE040A80EE201ACC4880ED031AD0ED23
:101CD000030AB0EE600A4FF4B2600BF068FB6820B4
:101CE000FEF7A4FC83E000EE104AB8EE400ADFEDF8
:101CF000C40A80EE201AC14880ED041AD0ED040A0F
:101D0000B0EE600A40F294500BF051FB6820FEF7F1
:101D10008DFC6CE0BB490C70084601784FF4B46050
:101D20000BF087FA6820FEF781FC60E000EE104AB5
:101D3000B8EE400AF2EE040A80EE201AAF4880EDB9
:101D4000051AD0ED050AB0EE600A4FF4B3600BF04F
:101D50002EFB6820FEF76AFC49E000EE104AB8EE60
:101D6000400AF2EE040A80EE201AA44880ED061A1A
:101D7000D0ED060AB0EE600A40F29C500BF017FB63
:101D80006820FEF753FC32E000EE104AB8EE400A3D
:101D9000F2EE040A80EE201A9B4880ED001A90EDC6
:101DA000000A40F2A2500BF002FB6820FEF73EFC56
:101DB0001DE096480CF0BEF980469548C0F80080BA
:101DC000414614200BF0D0FA6C20FEF72FFC0EE0F9
:101DD00090480481018940F2BE500BF093FA8D487F
:101DE0000289032141F230200CF042FA00BF46E0A4
:101DF00089480CF073F98146B9F1010F3FD186484B
:101E00000CF0A4F90546062D1ED18348007901285F
:101E100003D081480079032812D1FEF720FD7F48C6
:101E2000007801282BD100207C4908707C4800787C
:101E30003C2824DA7A480078401C794908701EE072
:101E40000020774908701AE0202D0FD175480078DE
:101E500010B171480CF07DF97048007801280ED15E
:101E600000206E4908706E49087008E06B480078E1
:101E7000012804D10020694908706949087000BF31
:101E8000FEF720BD10B5684800882A2804D0342801
:101E90002ED0352862D145E06448407820BB6448A4
:101EA00090ED040A634880ED040A61488069614945
:101EB00088615F4890ED050A084680ED050A5C4898
:101EC000007F08775A48407F48775948006A08627F
:101ED000574890F8240081F8240057480078564964
:101EE000487007F077FA02E02620FEF79FFB35E006
:101EF00051488078012805D15049487000204C494C
:101F000081F860004C48C078012805D147494870E5
:101F10000020484981F8600001204949087049497A
:101F200008701BE044488078012806D1042043490A
:101F3000487000203E4981F860003F48C078012881
:101F400006D104203949487000203A4981F86000E0
:101F500001203B4908703B49087000BF00BF10BD1D
:101F600008B53648407848B9374808234FF4B57269
:101F70000021009008460CF0CDFB16E033480078B5
:101F8000012809D1304808234FF4B5720021009090
:101F900008460CF0BFFB08E02D487F234FF4B572D4
:101FA0003721009003200CF0B5FB2048407848B959
:101FB000254808234FF4BF720021009008460CF01A
:101FC000A9FB5EE046E00000DE00002057414954D6
:101FD00020000000AE0100204F4B21202000000017
:101FE0004552524F52000000B8010020BA010020B3
:101FF0000000000000408F40500200208C24002090
:1020000000007A443E02002040020020AC24002060
:102010009801002090090020DE2400208A00002082
:10202000F4000020AD010020C0000020A30000202B
:10203000B80A0020240B0020BC0000209F000020D4
:1020400054010020520100205601002053010020BD
:102050005E010020F9480078022809D1F8480823D9
:102060004FF4BF720021009008460CF053FB08E0CB
:10207000F4487F234FF4BF72FF21009003200CF03F
:1020800049FB08BD0020F049C880704700B500201A
:10209000ED49C8708880887001200870FFF7F2FF52
:1020A0000120E949487000BDE84890ED010AD0EDF3
:1020B0000A0A30EE200A80ED010A90ED030AD0ED05
:1020C0000B0A30EE200A80ED030A7047E04890EDDD
:1020D000010AD0ED0A0A30EE200A80ED010A90EDE7
:1020E000030AD0ED0B0A30EE200A80ED030A704798
:1020F00010B50BF0FEFC0020D649087010BD10B5DD
:102100000120D44908700BF0B2FCD348008800EEDF
:10211000100AB8EE400AD14880ED000A9FEDD00ABF
:10212000CA4880ED110A9FEDCE0A80ED100A9FED9E
:10213000CC0A80ED0F0A10BD10B50BF058FC002042
:10214000C849087010BD10B50120C64908700BF0D1
:102150000CFCC548008800EE100AB8EE400AC348DF
:1021600080ED000A9FEDBE0AB94880ED110A9FED8F
:10217000BC0A80ED100A9FEDBA0A80ED0F0A10BD6F
:102180000020BB494870052088700020C870704747
:1021900010B5FFF7F5FFFFF7ABFF10BD0020B54905
:1021A0004870052088700020C870704710B5FFF790
:1021B000F5FFFFF7C1FF10BD10B5AF4800885C28E0
:1021C00067D05EDC66D2DFE810F06500E3007B01DB
:1021D00063012104730177016706E700F50004013C
:1021E000130121012D0165006500BD0088018E01EC
:1021F00065006500A202A802F403BF03C101CA0181
:10220000D301DE0165000F021802210227026500DA
:102210006500650065006500650065006500950165
:102220006500650065006500650065006500650086
:1022300065005802670265005E04B704E9013202D6
:102240006500650006024F026500650065006500D7
:1022500065006500650065006500ED01020236025B
:102260004B0265006500650065007E029E02650008
:10227000650065006500B602D102F8020F03AF02E7
:102280002203792870D024DCA0F15D001C2899D2AB
:1022900001E0C3E263E0DFE810F0DC022D03440359
:1022A0009303A6035E03750368046C047004FA05C7
:1022B00098058B04A404620062007E049704620007
:1022C0006200AE04BA04C604CA0490059405B204C0
:1022D000B6048A287CD014DCA0F17A000F28D6D26C
:1022E000DFE810F09D04D6053D00A904B6043D00CA
:1022F0009F053D00200539055205B705BB05BF0503
:10230000D10541F20502811A90426FD010DCB0F580
:10231000805F6CD004DC8B2827D08C281FD134E060
:102320006FF48051084400286FD00128F6D117E0DF
:102330000629ACD2DFE811F01300C705D8059904CF
:102340009D04AA044B48407810B94948407818B118
:102350002D20FEF76BF902E00220FEF767F92BE271
:102360006D20FEF763F9FAE7FEE3444890ED000ABA
:10237000374880ED040A424890ED000A334880ED6A
:10238000040A0220FEF752F9E9E7FEF763F9E6E7EF
:102390000620FEF74BF9E2E701203A4981F83000C8
:1023A000084690F83010BE200AF043FF0620FEF7E2
:1023B0003DF9D4E70020334981F83000084690F811
:1023C0003010BE200AF035FF0620FEF72FF9C6E7D1
:1023D000F8E301202C4908720846017A4FF4A470F2
:1023E0000AF027FF0620FEF721F9B8E7EBE30EE33A
:1023F0000020254908720846017A4FF4A4700AF0BB
:1024000018FF0620FEF712F9A9E71EE310F0E2F923
:102410001E48017840F28E500AF00BFF0620FEF7AE
:1024200005F99CE710F0DAF91848017840F28E506F
:102430000AF0FFFE0620FEF7F9F890E753010020AE
:10244000560100205E01002090090020240B00208E
:10245000B80A00209C000020BA010020F8010020EA
:102460000000000099000020B8010020F4010020C5
:10247000A30000209F000020C0000020F8000020E2
:10248000FC000020A40B0020900B0020380200204C
:10249000F74890ED040AF74880ED000AF64890ED01
:1024A000040AF64880ED000A5320FEF7BFF856E70D
:1024B0004420FEF7BBF852E74D20FEF7B7F84EE791
:1024C0000020EF494870EF4948700120EE4908703C
:1024D000EE490870EE49087041E70120EC490870A8
:1024E000EA4908703BE70120E94908700220E74902
:1024F000087034E7E348407820BBDD4890ED040ADB
:10250000DD4880ED040ADA488069DB498861D848F3
:1025100090ED050A084680ED050AD548007F08774A
:10252000D348407F4877D248006A0862D04890F884
:10253000240081F82400D7480078D649487006F076
:1025400049FF02E02620FEF771F808E70020D14994
:10255000087006F033FF0820FEF768F8FFE6012058
:10256000CC49087006F02AFF0C20FEF75FF8F6E66B
:102570000120C34948700020BD4981F86000012056
:10258000C3490870EBE60420BD4948700020B849F3
:1025900081F860000120BE490870E0E62920FEF7BE
:1025A00045F8DCE6B6484078032802D10DF0E4F99E
:1025B00005E0B3484078052801D10DF0DDF905F0BC
:1025C000B4FBFFF7F3FD0120B1490870C7E6012015
:1025D000AF490870C3E60320A9494870FFF7B3FD6F
:1025E0000120AB490870BAE60020AA49487006F0FD
:1025F000E5FE0A20FEF71AF8B1E60120A549487069
:1026000006F0DCFE0E20FEF711F8A8E601209D4939
:1026100048709F490870A2E604209A49487000203B
:10262000954981F8600001209949087097E62B20B0
:10263000FDF7FCFF93E693484078032802D10DF0A4
:102640007CFA05E08F484078052801D10DF075FA35
:1026500005F0AAFCFFF79CFD01208D4908707EE67D
:1026600001208B4908707AE6032086494870FFF7FD
:1026700046FD01208649087071E68148407838B9E6
:1026800001207F4948707F4948708149087002E005
:102690002720FDF7CBFF62E67948407878B904201F
:1026A00077494870774948700020714981F8600087
:1026B000714981F8600001207549087002E0272007
:1026C000FDF7B4FF4BE66E484078032803D06C4812
:1026D0004078052801D10DF04FF96A484078032869
:1026E00003D068484078052801D10DF026FA05F09E
:1026F0001CFBFFF75BFD05F057FCFFF749FD0220CF
:10270000FDF794FFF5E3012061490870F1E3012032
:102710005F4908705C490870EBE301205C49087070
:10272000022059490870E4E3012059490870022049
:1027300055490870DDE358480088012805DD5648F2
:102740000088401E544908800BE05448007820B1AE
:1027500042F20F705049088003E0504840884E49CB
:1027600008804F490878FDF761FFC2E34A480088B6
:1027700042F20F71884218DA4848007828B146487A
:102780000088401C4449088012E04448408842497F
:102790000988884205DD40480088401C3E49088081
:1027A00006E001203C49088002E001203A49088007
:1027B0003B490878FDF73AFF9BE33A48407800B17F
:1027C00097E33548008858B1334800883649088077
:1027D000084600883549088001203249487002E0E7
:1027E0003C20FDF723FF84E32B48008858B12A489A
:1027F00000882F490880084600882E49088001205B
:102800002D49487002E03C20FDF710FF71E30120E4
:102810001F49087003201C4908706AE32748008894
:10282000012805DD25480088401E244908800BE06A
:102830002348007820B14FF47A702049088003E0E3
:102840001F4840881D49088015490878FDF7EEFEAD
:102850004FE31A480088B0F57A7F43DA18480078C9
:1028600028B116480088401C144908803DE029E042
:10287000B80A0020F8000020240B0020FC000020F3
:102880009F000020A30000205401002053010020DD
:1028900052010020BC000020C40000209C01002048
:1028A00096000020A7000020C8000020CA000020D9
:1028B000CC000020CE000020AE000020C60000208A
:1028C000A0010020F8484088F8490988884205DDC1
:1028D000F6480088401CF549088006E00120F349CD
:1028E000088002E00120F1490880F1490878FDF7ED
:1028F0009DFEFEE2EF48407800B1FAE2EB48008826
:1029000058B1EA480088EC49088008460088EB493D
:1029100008800120E749487002E03D20FDF786FE6F
:10292000E7E2E248008858B1E0480088E4490880BE
:1029300008460088E34908800120E349487002E026
:102940003D20FDF773FED4E20120E0490870042029
:10295000DF490870CDE2DF48407800B1C9E2DE48C7
:10296000008858B1DC480088D3490880DB480088DB
:10297000D24908800120D749487002E03C20FDF789
:1029800055FEB6E2CB48407800B1B2E2D4480088A8
:1029900058B1D3480088C8490880D2480088C74940
:1029A00008800120C349487002E03D20FDF73EFE4B
:1029B0009FE20120C54908700520C549087098E2CA
:1029C000C548008858B1C4480088BD490880C3483C
:1029D0000088BC4908800120C349487002E03C20BF
:1029E000FDF724FE85E2BE48008858B1BC48008847
:1029F000B3490880BB480088B24908800120B24929
:102A0000487002E03D20FDF711FE72E200BF40F683
:102A1000AB700AF091FCB549488008464088B4493B
:102A2000088040F6AA700AF036FCB04908700846E3
:102A3000007830B90846408818B94220FDF7F6FD05
:102A400002E03E20FDF7F2FD53E24FF47B600AF016
:102A500073FC95494880084640889449088040F6B0
:102A6000AF700AF018FC904908700846007830B939
:102A70000846408818B94320FDF7D8FD02E0412000
:102A8000FDF7D4FD35E201209049087090490870A7
:102A90009849087098480078022805D10420974981
:102AA000487001209349087093480078032805D1A5
:102AB00006209249487001208E4908708E4800789F
:102AC000012801D18B4908708B48007820B900207B
:102AD0008A49487005F029F989480078022809D107
:102AE00004208849487083480078012802D00220D9
:102AF0008049087082480078032809D1062081495E
:102B000048707C480078012802D00220794908707A
:102B10007B480078012806D176480078012802D049
:102B20000220744908707648007820B90020754961
:102B3000487005F039FADCE16F480078032801D1CC
:102B40000CF01AFF6E480078032801D10CF0F5FF55
:102B500005F0EBF8FFF72AFB05F026FAFFF718FB64
:102B60000220FDF763FDC4E155E05420FDF75EFD52
:102B7000BFE15620FDF75AFDBBE19FED630A6348B4
:102B800080ED040A9FED600A614880ED040A582038
:102B9000FDF74CFDADE15F480078012802D0FFF75A
:102BA000D2FA01E0FFF7C8FA5820FDF73FFDA0E197
:102BB00058480078012801D0FFF788FA5820FDF71F
:102BC00035FD96E151E173E153480078012802D0C8
:102BD000FFF795FA01E0FFF78BFA5820FDF726FD85
:102BE00087E14D480078012801D0FFF75DFA5820B1
:102BF000FDF71CFD7DE15C20FDF718FD79E17020FB
:102C0000FDF714FD75E15A20FDF710FD71E15E201E
:102C1000FDF70CFD6DE17220FDF708FD69E15A201A
:102C2000FDF704FD65E16020FDF700FD61E1612035
:102C3000FDF7FCFC5DE1002038490870084601788A
:102C400040F282500AF0F5FA6120FDF7EFFC50E106
:102C50000120324908700846017840F282500AF09B
:102C6000E8FA6120FDF7E2FC43E16520FDF7DEFCB8
:102C70003FE100202A4908700846017840F25B20B5
:102C80000AF0D7FA6520FDF7D1FC32E10120244992
:102C900008700846017840F25B200AF0CAFA652005
:102CA000FDF7C4FC25E10000A0010020C6000020C3
:102CB00096000020AA000020C8000020CA000020C2
:102CC000CC000020CE000020B400002052010020E3
:102CD00054010020A7000020D0000020D2000020D6
:102CE000D4000020D6000020AE0000209C0100206F
:102CF000C400002053010020CF0100209F000020CD
:102D0000D0010020A3000020CDCCCC3DB80A00208B
:102D1000240B0020990000209C000020CC01002002
:102D2000AD0100200120FE4981F83400FD4981F801
:102D30003400FB4890F834104FF4B7600AF079FA89
:102D4000F84890F8341040F2B9500AF072FA642052
:102D5000FDF76CFCCDE00220F14981F83400F14927
:102D600081F83400EE4890F834104FF4B7600AF060
:102D700060FAEC4890F8341040F2B9500AF059FA71
:102D80006420FDF753FCB4E00320E54981F83400EA
:102D9000E44981F83400E24890F834104FF4B76009
:102DA0000AF047FADF4890F8341040F2B9500AF0C0
:102DB00040FA6420FDF73AFC9BE06220FDF736FC08
:102DC00097E06420FDF732FC93E0FFF77FF9FFF70F
:102DD0006BF9D348D0ED010AB0EE600A4FF40370EE
:102DE0000AF0E5FACE48D0ED030AB0EE600A4FF4DF
:102DF00005700AF0DCFACB48D0ED010AB0EE600AAB
:102E00004FF435700AF0D3FAC648D0ED030AB0EE9D
:102E1000600A4FF437700AF0CAFA5420FDF706FC36
:102E200067E0AFF658614FF483500BF0B8F90CF03F
:102E300049FA012806D1AFF660614FF483500BF0D8
:102E4000AEF905E0AFF668614FF483500BF0A7F9D7
:102E50004FE06620FDF7EAFB4BE06820FDF7E6FB5C
:102E600047E06A20FDF7E2FB43E04FF4FA6005F02B
:102E7000D3FC012128200AF0DCF9ABA14FF48450E7
:102E80000BF08DF935E06C20FDF7D0FB31E000BF91
:102E90005A20FDF7CBFB2CE0A44800787B2806D015
:102EA000A2480078A24908807B20FDF7BFFB20E004
:102EB000FFF7ECF89FA141F250200BF070F97B2056
:102EC000FDF7B4FB15E000209D49487001209D49A5
:102ED0000860FFF7D7F89CA141F250200BF05FF992
:102EE0007B20FDF7A3FB04E091490878FDF79EFBEA
:102EF00000BF00BFFEF7C6FF9648007888B30020E9
:102F0000944908709448007801284FD1934800787C
:102F1000012841D19248407818B90820FDF786FB76
:102F20003AE08F484078032803D11220FDF77EFB5A
:102F300032E08B484078042803D11020FDF776FB5F
:102F40002AE087484078062803D11020FDF76EFB61
:102F500022E083484078012804D11620FDF766FB63
:102F60001AE0AEE07E484078022803D11A20FDF72F
:102F70005DFB11E07A48407805280DD17948C07989
:102F8000032802D12420FDF751FB7648C07902289E
:102F900002D12120FDF74AFB70480078022840D179
:102FA0007148407818B90A20FDF740FB39E06E48B7
:102FB0004078032803D11420FDF738FB31E06A483C
:102FC0004078042803D11120FDF730FB29E0664842
:102FD0004078062803D11120FDF728FB21E0624844
:102FE0004078012803D11820FDF720FB19E05E4846
:102FF0004078022803D11C20FDF718FB11E05A4845
:10300000407805280DD15948C079032802D12520E0
:10301000FDF70CFB5548C079022802D12320FDF7AB
:1030200005FB4D48007802281CD140F6AB700AF031
:1030300083F94F494880084640884E49088040F649
:10304000AA700AF028F94A4908700846007830B991
:103050000846408818B93620FDF7E8FA02E0322029
:10306000FDF7E4FA3C48007803281CD14FF47B605C
:103070000AF062F940494880084640883F49088084
:1030800040F6AF700AF007F93B490870084600782F
:1030900030B90846408818B93720FDF7C7FA02E072
:1030A0003420FDF7C3FA2C480078042802D13A20D6
:1030B000FDF7BCFA28480078052802D13820FDF732
:1030C000B5FA2F48008808B1FEF74AFF00202C49C6
:1030D000088010BD704700B58BB02A4800780128E1
:1030E00068D10020274908702748007810B90AF0F5
:1030F00069FF65E00BF0B6FA2448007824490870AF
:10310000244800782449087024480078244908702D
:1031100024480078244908702448007824494AE06B
:10312000B80A0020240B00204F4B210096000020FD
:10313000DC000020C1ACBDD3D6D02E2E2E00000066
:1031400090090020AC824042D2D1B6CFBFAA212044
:1031500020000000520100205401002053010020F3
:103160009F000020100A0020A3000020380A002041
:103170009C010020C4000020A0010020C600002007
:10318000C000002060000020AD01002007020020E8
:10319000FC01002008020020FD010020090200209F
:1031A000FE0100200B020020FF0100200C02002085
:1031B00000020020FDE00870FE480078FE4908701B
:1031C000FE480278022194200BF01EF8FC48027899
:1031D000022196200BF018F8FA4802780221982074
:1031E0000BF012F8F848027802219A200BF00CF844
:1031F000F648027802219C200BF006F8EE4802788F
:1032000002219E200BF000F8F1A1684617F021FE84
:10321000EA48027808A9022010F008FC08A96846CC
:1032200017F03BFEEBA1684617F037FEE448027842
:1032300008A9022010F0FAFB08A9684617F02DFE35
:10324000E5A1684617F029FEDE48027808A90220A9
:1032500010F0ECFB08A9684617F01FFEDFA16846D6
:1032600017F01BFE69464FF498500AF098FFDC48AF
:1032700000780A2814DBDB480078401CD949087024
:10328000087800EBD0714910A0EB4101D54A1170CC
:103290001046007820B9D4A14FF498500AF07FFF6F
:1032A000C94802786946022010F0C0FBD2A16846E6
:1032B00017F0F3FDC548027808A9022010F0B6FB0C
:1032C00008A9684617F0E9FDCCA1684617F0E5FDAE
:1032D000B948027808A9022010F0A8FB08A968469E
:1032E00017F0DBFDC6A1684617F0D7FD69464FF41D
:1032F00099500AF054FFC3480078401CC149087037
:10330000084600780A2801DD00200870BD480078D2
:10331000052821DABC480078012813D0BBA16846F3
:1033200017F097FDBC4890ED000A08A9BB4810F0C3
:10333000CAFB08A9684617F0B0FDB9A1684617F0A6
:10334000ACFD03E0B7A1684617F083FD69464FF472
:103350009E500AF024FF12E0B648006860B1B648FB
:10336000007828B1B5A14FF49E500AF018FF06E08E
:103370000020A449087002E00020A2490870B3A10F
:10338000684617F066FDB348D0ED0F0AB0EE600A4C
:1033900008A9A24810F097FB08A9684617F07DFD20
:1033A0009FA1684617F079FD69464FF4A0500AF0D6
:1033B000F6FE0BB000BDF0EE400A10F8302F521CA4
:1033C000027010F83029092A02DD002280F830202E
:1033D00090F83030021D02EB8302C2ED000A9FED2F
:1033E0009E0A00210AE0021D02EB810292ED001A02
:1033F00031EE001AB0EE410A4A1CD1B20929F2DDC1
:10340000B2EE041AC0EE011AC0ED001A7047014670
:10341000002281F83020002008E09FED8F0A0A1D6D
:1034200002EB800282ED000A421CD0B20928F4DDD2
:10343000704710B57F48006828B901214FF49A50B1
:103440000AF0C0FF04E000214FF49A500AF0BAFFDE
:1034500010BD10B5814890ED000AF3EE0E0AB4EEEF
:10346000E00AF1EE10FA0CDC72480068C0B97C4842
:1034700090ED000ADFED7B0AB4EEE00AF1EE10FAFF
:103480000ED279480078401C7749087008460078C9
:10349000052190FBF1F201FB1200734908703AE03C
:1034A0006F4890ED000ADFED710AB4EEE00AF1EE2C
:1034B00010FA03DD04206C4908702CE0684890ED98
:1034C000000ADFED6B0AB4EEE00AF1EE10FA03DD5C
:1034D0000320654908701EE0614890ED000ADFEDA9
:1034E000650AB4EEE00AF1EE10FA03DD02205E494F
:1034F000087010E05A4890ED000AF2EE0C0AB4EEA3
:10350000E00AF1EE10FA03DD01205749087002E0ED
:103510000020554908705448007841B24FF49B5040
:103520000AF050FF10BD38B55348007801283FD14C
:103530000020514908700BF0F1F95048007890B123
:103540004F48D0ED120AB0EE600A4E48FFF733FF45
:103550004C48D0ED000AB0EE600A4B494FF42C7095
:103560000AF0EEFE11E04748FFF751FF9FED3A0ADF
:103570004448FFF720FF4348D0ED000AB0EE600A50
:1035800041494FF42C700AF0DBFE4048007870B1DE
:103590003F48D0ED120AB0EE600A3E48FFF70BFF3D
:1035A0003C48D0ED000AB0EE600A374974E078E09C
:1035B00029E200000D02002001020020FC01002091
:1035C000FD010020FE010020FF010020000200207C
:1035D00032300000C4EA0000D4C20000C8D50000A8
:1035E000F400002000010020CFD4CABEC6C1BCB781
:1035F000D1B9212020200000CAB10000B7D60000B8
:10360000C3EB000066010020E8010020B1A3CEC298
:10361000CFE4203D00000000C40100205DBC030891
:10362000A1E60000B1A3CEC2CFE4203D2078782EE1
:1036300078A1E6000C02414238020020B1A3CEC2BC
:10364000CFE4CEB4B9A9B5E721202000BBB7CEC2E4
:103650003D000000A40B00200000000048020020F4
:103660004C02002033337B41670100209A99794155
:1036700066666E41666666411E0000209900002065
:10368000B80A00209C09002074BC03089C0000209C
:10369000240B0020D009002040F2E3200AF050FE65
:1036A00011E0FE48FFF7B3FE1FED150AFB48FFF7D8
:1036B00082FEFA48D0ED000AB0EE600AF84940F206
:1036C000E3200AF03DFEF748D0ED0A0AB0EE600AAA
:1036D000F5494FF420700AF033FEF448D0ED0A0AA1
:1036E000B0EE600AF0494FF423700AF029FEED486D
:1036F000D0ED0B0AB0EE600AED4940F286200AF0E8
:103700001FFEEA48D0ED0B0AB0EE600AE84940F22D
:1037100092200AF015FEE348D0ED130AB0EE600ADD
:10372000E44940F2B6200AF00BFEDE48D0ED140A60
:10373000B0EE600ADF494FF430700AF001FED9485C
:10374000406D4FF46161B0FBF1F0C4B2224602213A
:1037500040F2D2200AF058FDD248406D4FF461612A
:10376000B0FBF1F201FB12003C21B0FBF1F0C4B25E
:10377000224602214FF435700AF046FDC948406DDB
:103780003C21B0FBF1F201FB12042246022140F27F
:10379000D6200AF039FDC34890F86000401CC2B240
:1037A000022140F2DB200AF02FFDBE48C06D4FF42D
:1037B0006161B0FBF1F0C4B22246022140F27130E7
:1037C0000AF022FDB748C06D4FF46161B0FBF1F221
:1037D00001FB12003C21B0FBF1F0C4B222460221F1
:1037E00040F273300AF010FDAE48C06D3C21B0FBD2
:1037F000F1F201FB12042246022140F275300AF078
:1038000003FDA84890F86020022141F210000AF060
:10381000FBFCA648D0ED130AB0EE600AA54940F2C1
:10382000E9200AF08DFDA148D0ED140AB0EE600A3F
:10383000A04940F2F3200AF083FD9C48406D4FF40C
:103840006161B0FBF1F0C4B22246022140F20530C2
:103850000AF0DAFC9548406D4FF46161B0FBF1F27B
:1038600001FB12003C21B0FBF1F0C4B22246022160
:1038700040F207300AF0C8FC8C48406D3C21B0FB98
:10388000F1F201FB12042246022140F209300AF053
:10389000BBFC864890F86000401CC2B2022140F296
:1038A0000B300AF0B1FC8148C06D4FF46161B0FB90
:1038B000F1F0C4B22246022140F277300AF0A4FCB3
:1038C0007A48C06D4FF46161B0FBF1F201FB120068
:1038D0003C21B0FBF1F0C4B22246022140F2793023
:1038E0000AF092FC7148C06D3C21B0FBF1F201FB83
:1038F00012042246022140F27B300AF085FC6B481C
:1039000090F8602002214FF481500AF07DFC6A4853
:1039100090F8300048B96848D0ED0E0AB0EE600A61
:103920006649FB200AF00CFD08E06348D0ED0F0A61
:10393000B0EE600A6149FB200AF002FD6048007A9F
:1039400050B95F48D0ED030AB0EE600A5D4940F21D
:1039500001100AF0F5FC09E05948D0ED040AB0EE78
:10396000600A584940F201100AF0EAFC5448D0EDD0
:10397000040AB0EE600A53494FF485500AF0E0FCA7
:103980004D48D0ED0F0AB0EE600A4C4941F25000AC
:103990000AF0D6FC4848D0ED030AB0EE600A474969
:1039A00040F2DE200AF0CCFC4348D0ED070AB0EE2E
:1039B000600A424940F20E300AF0C2FC424890EDE3
:1039C000000A3E4940F221500AF0BAFC3F48807894
:1039D00001280AD13E487F234FF490524FF4E27100
:1039E000009008200AF096FE09E03A487F234FF441
:1039F00090524FF4E271009008200AF08BFEFFF71E
:103A000028FDFFF716FD38BD10B52648D0ED040A95
:103A1000B0EE600A304940F257100AF091FC21489C
:103A2000D0ED050AB0EE600A2C494FF4E1700AF0BF
:103A300087FC1C4880694FF46161B0FBF1F0C4B2AF
:103A40002246022140F25B100AF0DEFB1548806935
:103A50004FF46161B0FBF1F201FB12003C21B0FBBD
:103A6000F1F0C4B22246022140F25D100AF0CCFB14
:103A70000C48027F022140F25F100AF0C5FB0948A2
:103A8000427F022140F261100AF0BEFB00220221B7
:103A9000C8020AF0B9FB0348006A21E0D0090020FF
:103AA00074BC0308B80A002060BC0308240B002083
:103AB00066BC030888BC0308A40B00205DBC030897
:103AC000900B002082BC0308C40100209009002054
:103AD0000A010020020100206EBC030880BC03081C
:103AE0004FF46161B0FBF1F0C4B22246022140F212
:103AF00063100AF089FBF948006A4FF46161B0FB7A
:103B0000F1F201FB12003C21B0FBF1F0C4B22246FD
:103B1000022140F265100AF077FBF04890F824206B
:103B2000022140F267100AF06FFBED48D0ED040A65
:103B3000B0EE600AEB494FF4E5700AF001FCE8488A
:103B4000D0ED050AB0EE600AE74940F2DD100AF058
:103B5000F7FBE34880694FF46161B0FBF1F0C4B258
:103B6000224602214FF4E7700AF04EFBDC488069E0
:103B70004FF46161B0FBF1F201FB12003C21B0FB9C
:103B8000F1F0C4B2224602214FF4E8700AF03CFB87
:103B9000D348027F02214FF4E9700AF035FBD04888
:103BA000427F02214FF4EA700AF02EFBCC48006AF3
:103BB0004FF46161B0FBF1F0C4B2224602214FF430
:103BC000EB700AF021FBC648006A4FF46161B0FB5C
:103BD000F1F201FB12003C21B0FBF1F0C4B222462D
:103BE00002214FF4EC700AF00FFBBD4890F824203E
:103BF00002214FF4ED700AF007FB10BD10B5BB4871
:103C00000078042836D1B9488078012810D10020E6
:103C1000B649887008780AF02AFAB5480278022175
:103C200041F2B0000AF0F0FA1421B248FCF71CFD92
:103C3000B048007801281CD10020AE490870AC487B
:103C4000007830B90A20AA4908703720AA490880AC
:103C500010E0A7480078002804DDA5480078401E41
:103C6000A3490870A2480278022141F2B0000AF08C
:103C7000CBFA00BF00BF10BD10B59C4800780228E9
:103C800010D19A488078012805D100209749887082
:103C900008780AF0ECF997480078012802D1002052
:103CA0009449087010BD10B594480088012800DAC6
:103CB00010BD9348008891490988884222DA9148CA
:103CC000007801282CD100208E4908708C4800888B
:103CD0008A490988884204DA89480088401C884952
:103CE00008808748008885490988884218DB752044
:103CF0000AF0BDF900200AF0CCFD02218148FCF752
:103D0000B3FC0DE07F480078012802D100207D49F6
:103D100008707D480088752802D075200AF0A7F940
:103D200000BFC5E708B571480078062875D16F480F
:103D30008078012872D100206C49887008780AF0D8
:103D400096F9724890F8300098B971487F2340F294
:103D500007125121009040F2A1200AF0DBFC6B48D1
:103D6000D0ED0E0AB0EE600A6A49FB200AF0E8FACC
:103D700012E067487F2340F20712512100904FF470
:103D80000C700AF0C7FC6148D0ED0F0AB0EE600A73
:103D90006049FB200AF0D4FA5F48007AA0B95C4879
:103DA0007F2340F21B128621009040F2A1200AF0EE
:103DB000B1FC5948D0ED030AB0EE600A574940F211
:103DC00001100AF0BDFA13E051487F2340F21B12A4
:103DD000862100904FF40C700AF09CFC4E48D0ED08
:103DE000040AB0EE600A4D4940F201100AF0A8FA48
:103DF0004B480078012812D045487F2340F22F120B
:103E0000C021009040F2A1200AF084FC45480288BD
:103E1000022183200AF02CFA11E01DE015E03C4855
:103E20007F2340F22F12C02100904FF40C700AF053
:103E300071FC3C480288022183200AF019FA2F48BD
:103E4000028803218F200AF013FA2A4800780128FB
:103E500002D100202749087008BD10B5234800781A
:103E60007B2873D121488078012817D100201F4971
:103E7000887008780AF0FBF82B480289032141F288
:103E800030200AF0F5F9284800892749C988401AE6
:103E900082B203214FF492500AF0EAF915480078F3
:103EA000012864D10020134908701F4802890321AA
:103EB00041F230200AF0DCF91B4800891A49C98810
:103EC000884233DB184800891749C988401A82B2F2
:103ED00003214FF492500AF0CBF92DE0B80A0020EC
:103EE000240B00206EBC030880BC03089600002051
:103EF0001401002018000020C0000020E60000206F
:103F0000E000002066000020E2000020A40B00205A
:103F1000EC0000205DBC0308900B002082BC03086D
:103F200038020020C801002090090020002203214F
:103F30004FF492500AF09CF9FE488078012806D18F
:103F4000FDA141F250200AF02AF910E010E0F948F2
:103F5000407830B1AFF6246141F250200AF01FF9E9
:103F600005E0AFF61C6141F250200AF018F900BFDD
:103F700000BF10BD10B5F34800780838262828D2B5
:103F8000DFE800F013FB28FB14FB29FBC7C844FB48
:103F900045FB57FB73FB8FFBAB587490ACCDFBCF4D
:103FA000CCCEE1E2E3C9FBCAFBCB00BFE548807899
:103FB00001280ED10020E3498870E348007818B941
:103FC00008200AF054F802E00C200AF050F8FFF73D
:103FD0001BFDD2E000BFDB48807801280ED1002015
:103FE000D8498870D848407818B90A200AF03FF8B4
:103FF00002E00E200AF03BF8FFF706FDD3480078F8
:10400000012802D10020D1490870B6E000BFCD4898
:104010008078012805D10020CA49887008780AF004
:1040200026F8CA480078012802D10020C749087044
:10403000A3E000BFC348807801280ED10020C14909
:104040008870C148007818B916200AF010F802E00C
:104050001D200AF00CF8FFF7D7FCBC4800780128B7
:1040600002D10020B949087087E000BFB5488078C8
:1040700001280ED10020B3498870B348407818B9A0
:10408000182009F0F4FF02E01E2009F0F0FFFFF70E
:10409000BBFCAE480078012802D10020AB49087073
:1040A0006BE000BFA748807801280ED10020A54909
:1040B0008870A548007818B91A2009F0D8FF02E0E6
:1040C0001F2009F0D4FFFFF79FFCA04800780128CB
:1040D00002D100209D4908704FE000BF99488078C8
:1040E00001280ED10020974988709748407818B968
:1040F0001C2009F0BCFF02E0202009F0B8FFFFF708
:1041000083FC92480078012802D100208F49087072
:1041100033E000BF00BF00BF00BF00BF00BF00BF53
:1041200000BF88488078012805D100208549887023
:10413000087809F09CFF85480078012802D100200A
:104140008249087019E000BF00BF7E4880780128CE
:1041500009D100207B498870087809F088FF142174
:104160007B48FCF781FA7A480078012804D10020C6
:1041700076490870FCF76EFA00BF00BF10BD10B59D
:104180002DED028B82B06F480078602823D00BDCC5
:10419000A0F153000C287CD2DFE800F017187B193F
:1041A0007B1A7B217B1B7B1C65281AD006DC6128CF
:1041B00012D0622811D064286BD111E06D280DD087
:1041C000702867D07228F7D1DDE100BF00BF00BFC3
:1041D00000BF00BF00BF00BF00BF00BF00BF00BFE7
:1041E00000BF5848807801287ED10020554988704A
:1041F000087809F03CFF00205649087051480078C3
:10420000582803D0FDF798FFFDF772FF5248D0ED14
:10421000000AB0EE600A51494FF495600AF090F838
:104220004D48D0ED010AB0EE600A4D4940F2C6405B
:104230000AF086F84848D0ED020AB0EE600A474915
:1042400040F2E4400AF07CF84348D0ED030AB0EEB7
:10425000600A444940F2FC400AF072F84248D0ED4E
:10426000000AB0EE600A3D4940F2AE400AF068F83C
:104270003D48D0ED010AB0EE600A394940F2CC4029
:104280000AF05EF83848D0ED020AB0EE600A334911
:1042900001E0E8E176E140F2EA400AF051F8324804
:1042A000D0ED030AB0EE600A2E4940F202500AF047
:1042B00047F82E48D0ED000AB0EE600A27494FF4C7
:1042C00098600AF03DF82948D0ED010AB0EE600A86
:1042D000244940F2DE400AF033F82548D0ED0D0ABB
:1042E000B0EE600A234900E030E141F290000AF0AC
:1042F00027F81F48D0ED010AB0EE600A1D4940F2D0
:1043000033500AF01DF81A48D0ED050AB0EE600AE5
:10431000184940F239500AF013F81548D0ED090A4F
:10432000B0EE600A134940F24B500AF009F8124807
:10433000007823E090090020D2D1C1ACBDD3212068
:104340002000000096000020BC0000201800002083
:104350005A000020DE000020B80A002084BC0308B8
:1043600076BC030882BC0308240B0020900B0020BD
:10437000A40B002078BC030899000020012809D074
:10438000FE48582340F295520021009008460AF05A
:10439000C1F908E0FA487F2340F295526D21009060
:1043A0005E200AF0B7F9F7480078012809D0F348F1
:1043B000582340F2A9520021009008460AF0AAF9B9
:1043C00008E0F1487F2340F2A952E62100905E20E8
:1043D0000AF0A0F9ED48D0ED040AB0EE600AEC490D
:1043E00040F25F5009F0ACFFEA48D0ED040AB0EEAD
:1043F000600AE74940F26B5009F0A2FFE348D0EDB4
:10440000040AB0EE600A03F066FEB0EE408AE249AC
:1044100040F2655009F094FFDE48D0ED040AB0EE9A
:10442000600A03F06CFEB0EE408ADB4940F2715046
:1044300009F086FFD94890ED000AD94940F28F5023
:1044400009F07EFFD7A14FF4835009F0A8FED5A153
:1044500041F2700009F0A3FED4480288042140F222
:104460001E6009F005FFD2480288042140F2EF5097
:1044700009F0FEFECF48007850B9CF487F2340F2C4
:10448000F652D721009040F2F1100AF043F90AE009
:10449000C9487F2340F2F6524FF49271009040F2E7
:1044A000F1100AF037F9B94890F8340001280AD120
:1044B000C2487F234FF4C462C92100904FF4E970D1
:1044C0000AF028F92AE0B14890F8340002280AD10D
:1044D000BA487F234FF4C462FF2100904FF4E97083
:1044E0000AF018F91AE0A94890F8340003280BD113
:1044F000B2487F234FF4C4624FF49B7100904FF495
:10450000E9700AF007F909E0AC487F234FF4C46270
:10451000C92100904FF4E9700AF0FCF8A84800782F
:1045200050B9A5487F2341F25042B22100904FF488
:10453000DC700AF0EFF809E09F487F2341F2504217
:10454000FD2100904FF4DC700AF0E4F89D480078FB
:10455000012816D100209B4908709B4807F01BF8E2
:1045600084B2224605214FF4865009F081FE964818
:1045700007F00EF884B22246052141F2D00009F07E
:1045800077FE70E000BF91488078012860D100205C
:104590008E498870087809F06AFD8C480078702888
:1045A00028D10BF0A8FE002089490870488089496D
:1045B000087048808648017840F6AA7008F039FEF5
:1045C0008348418840F6AB7008F09CFE8148017832
:1045D00040F6AF7008F02DFE7E4841884FF47B60B6
:1045E00008F090FE712009F042FD1E217548FCF78D
:1045F0003BF82DE075480078722829D1282008F072
:104600004AFE012811D100BF4FF4FA6004F004FA09
:10461000002004F001F904F0E6FA732009F027FD08
:104620001E216848FCF720F812E06B480078401C17
:1046300069490870084600780A2802DD00200870E1
:10464000E2E7742009F013FD1E215E48FCF70CF828
:104650005C480078012805D100205A4908705A208A
:10466000FBF7E4FF00BF00BF02B0BDEC028B10BD42
:1046700010B556480078662806D0682807D06A2802
:1046800003D06C2878D101E000BF00BF00BF4F48C5
:10469000807801285DD100204C498870087809F0A5
:1046A000E6FC4E480288052140F25C6009F0E0FD1E
:1046B0004B480288052140F2646009F0D9FD494861
:1046C00090ED000A344941F2903009F039FE464835
:1046D00008210268012009F0FFFD4448D0ED030ADB
:1046E000B0EE600A2A4940F2816009F029FE3F4895
:1046F000D0ED040AB0EE600A274940F2896009F063
:104700001FFE3B480278012140F2916009F07CFDD8
:104710003648D0ED050AB0EE600A364940F299609D
:1047200009F00EFE3148D0ED060AB0EE600A1849D5
:1047300040F2A16009F004FE2F4890ED000A1449F0
:1047400040F2A96009F0FCFD2CA14FF4845009F05F
:1047500026FD1C48007801285DD100201949087009
:10476000274890ED000A27494FF49C5009F0E8FDD6
:10477000254890ED000A49E04EE000003601002097
:10478000260100209C0000202E010020B80A0020F5
:104790006EBC0308240B00207CBC0308E80000204A
:1047A0006CBC03082020202020000000AE01002067
:1047B000AA010020CC0100203E010020460100207B
:1047C000AD010020180000200008004096000020E5
:1047D0009C010020A00100204E010020B801002013
:1047E000BA01002050020020980100208C240020F3
:1047F0003E02002078BC0308400200202020200058
:104800004C0200207ABC030848020020FE4941F215
:10481000B03009F095FD00BF00BF10BD70B590B07D
:10482000FA480078323812287DD2DFE800F0097C9F
:10483000FE7CFDFC7C7C7C7CFBFA0A7C7CF9F8F736
:1048400000BFF248807801286ED10020EF498870BF
:10485000087809F00CFCEE4800880BF065F8ED488C
:10486000007828B9ECA141F2902009F098FC04E00E
:10487000EBA141F2902009F092FCE5480288042166
:1048800040F2893009F0F4FCE7A108A816F0E1FA3B
:10489000E0484278694602200FF0C8F8694608A847
:1048A00016F0FBFAE1A108A816F0F7FAD9488278C9
:1048B000694602200FF0BAF8694608A816F0EDFA2A
:1048C000DAA108A816F0E9FAD248C27869460220AF
:1048D0000FF0ACF8694608A816F0DFFAD4A108A8D2
:1048E00016F0DBFACB480279694602200FF09EF8F9
:1048F000694608A816F0D1FACEA108A816F0CDFA9C
:10490000C4484279694602200FF090F8694608A829
:1049100016F0C3FAC7A108A816F0BFFABD488279FD
:104920006946022001E044E2BBE00FF07FF86946EF
:1049300008A816F0B2FA08A940F28F3009F02FFC4F
:10494000B44880684FF46161B0FBF1F0C4B2B14883
:104950008068B0FBF1F201FB12003C21B0FBF1F0EA
:10496000C5B2AC488068B0FBF1F201FB12062246EA
:10497000694602200FF05AF8694608A816F069FA4D
:10498000ACA108A816F089FA2A46694602200FF061
:104990004DF8694608A816F080FAA6A108A816F0F6
:1049A0007CFA3246694602200FF040F8694608A8B2
:1049B00016F073FA08A940F2A33009F0F0FB95480D
:1049C000D0ED080AB0EE600A9B4940F2BF3009F012
:1049D000B7FC9048D0ED090AB0EE600A974940F262
:1049E000AB3009F0ADFC8B48D0ED030AB0EE600AA5
:1049F000934940F2C53009F0A3FC8648D0ED060A81
:104A0000B0EE600A8F4940F2B13009F099FC81485C
:104A1000D0ED070AB0EE600A874907E04CE04AE0B3
:104A20006FE055E053E045E043E069E040F2CA3012
:104A300009F086FC7748D0ED040AB0EE600A82499E
:104A400040F2B73009F07CFC7248D0ED050AB0EEB8
:104A5000600A7D494FF4747009F072FC7B4800785D
:104A6000012819D16B48C079022805D178A141F2FB
:104A7000702009F094FB14E06648C079032805D142
:104A800076A141F2702009F08AFB0AE076A141F29A
:104A9000702009F084FB04E073A141F2702009F05A
:104AA0007EFB74480078012802D10020714908700B
:104AB0007FE100BF00BF00BF54488078012805D1C6
:104AC000002052498870087809F0D1FA71E100BFDE
:104AD0004E488078012809D100204C498870087818
:104AE00009F0C5FA14216448FBF7BEFD624800785E
:104AF000012804D100205F490870FBF7ABFD58E1A5
:104B000000BF4248807801287CD100203F4988704E
:104B1000087809F0ACFA594800880BF0EFF85848CB
:104B2000007828B957A141F2B02009F038FB04E021
:104B300056A141F2B02009F032FB5048028804210E
:104B400040F2ED3009F094FB37A108A816F081F986
:104B50004B484278694602200EF068FF694608A873
:104B600016F09BF931A108A816F097F9444882780D
:104B7000694602200EF05AFF694608A816F08DF922
:104B80002AA108A816F089F93D48C2786946022092
:104B90000EF04CFF694608A816F07FF924A108A87A
:104BA00016F07BF936480279694602200EF03EFF86
:104BB000694608A816F071F91EA108A816F06DF94B
:104BC0002F484279694602200EF030FF694608A856
:104BD00016F063F917A108A816F05FF92848827942
:104BE000694602200EF022FF694608A816F055F922
:104BF00008A940F2114009F0D2FA0BA108A816F05A
:104C000028F947E0CDE0000076BC030896000020BC
:104C1000C4000020600A002041C2B7B2C9D1F90027
:104C200042C2B7B2C9D1F900323000002D000000F5
:104C3000202000003A0000005DBC030882BC03088D
:104C40006EBC030866BC030888BC0308AC010020E6
:104C5000B9DCC2B7B6C2C8FB20200000C1F7C1BF93
:104C6000B4EFB2BBB5BD00002020202020202020C2
:104C700020200000180000205A000020C60000205C
:104C8000A80A002041C2B7B5F4B5E70042C2B7B5E3
:104C9000F4B5E700FE48C279694602200EF0C6FE70
:104CA000694608A816F0F9F8AFF2800108A816F0D6
:104CB000F4F8F748027A694602200EF0B7FE69461A
:104CC00008A816F0EAF8AFF29C0108A816F0E5F87B
:104CD000EF48427A694602200EF0A8FE694608A80D
:104CE00016F0DBF8AFF2B80108A816F0D6F8E848DD
:104CF000827A694602200EF099FE694608A816F0ED
:104D0000CCF8AFF2D00108A816F0C7F8E048C27A94
:104D1000694602200EF08AFE694608A816F0BDF822
:104D2000AFF2F00108A816F0B8F8D948027B69463E
:104D300002200EF07BFE694608A816F0AEF808A91E
:104D400040F22F4009F02BFAD148427B69460220FD
:104D50000EF06CFE694608A816F07BF8AFF22C1135
:104D600008A816F09AF8CA48827B694602200EF01D
:104D70005DFE694608A816F090F8AFF2481108A841
:104D800016F08BF8C248C27B694602200EF04EFE38
:104D9000694608A816F081F808A940F24D4009F0CC
:104DA000FEF9BC480078012802D10020B9490870FA
:104DB00000BF00BF10B070BD10B5B74800784628DE
:104DC0000CD004DC38281BD0442858D119E04B28DB
:104DD00002D04C2853D100E000BF00BFAE4880781D
:104DE000012805D10020AC498870087809F03FF906
:104DF000A8480078012802D10020A64908703EE0AA
:104E000000BFA5488078012831D10020A2498870D0
:104E1000087809F02CF9A1484088A14908809F48EA
:104E20004088A0490880A0484088A04908809E4842
:104E300040889F4908809A480288042140F26C40CB
:104E400009F016FA97480288042140F2714009F0EF
:104E50000FFA96480288042140F2764009F008FAD9
:104E600093480288042140F27B4009F001FA894806
:104E70000078012802D100208649087000BF00BFD9
:104E800010BD10B58448007850280CD006DC3A28B4
:104E90001ED04D281DD04F2859D105E0512804D0EF
:104EA000522854D102E000BF00BF00BF7A4880788A
:104EB000012805D1002078498870087809F0D7F8D2
:104EC00074480078012802D10020724908703EE041
:104ED00000BF71488078012831D100206E49887068
:104EE000087809F0C4F86D4840886D4908806B481F
:104EF00040886C4908806C4840886C4908806A4842
:104F000040886B49088066480288042140F284404A
:104F100009F0AEF963480288042140F2894009F0A3
:104F2000A7F962480288042140F28E4009F0A0F9F6
:104F30005F480288042140F2934009F099F95548EE
:104F40000078012802D100205249087000BF00BF3C
:104F500010BD10B5FEF7A7FEFEF750FEFEF7E3FA10
:104F6000FEF78AFEFEF7DEFEFFF704F8FFF707F90B
:104F7000FFF754FCFFF720FFFFF783FFFFF778FBF5
:104F8000FEF76BFF10BD30B59DB04A48407808B9B8
:104F90001DB030BD47484078012802D10320454963
:104FA000487044484078032819D13B48007842496A
:104FB00008804248007801280AD004203D49487002
:104FC0004F20FBF733FB28213D48FBF74DFB05E065
:104FD0000920384948705120FBF728FBD8E73548AD
:104FE0004078042803D03348407802280ED1344852
:104FF0000078012809D10020314908702E4908782D
:10500000FBF714FB00202B494870C1E72948407882
:1050100009283BD12B480078002838D12A490122A1
:1050200088682AA110F08AF829A010F0E8FE04464A
:105030000A200EF073FB00202B4908722BA104A854
:1050400015F007FF2F4801A9026808200EF022FD85
:105050002DA104A815F021FF01A904A815F01DFF3A
:1050600004A810F0CCFE04460A200EF057FB28A13D
:1050700004A815F012FF27A104A815F00EFF1322B3
:1050800004A92848006810F084F84DE0E0E06EE0E4
:10509000A80A002018000020960000209C01002093
:1050A000D0000020D2000020A0010020D400002069
:1050B000D6000020A7000020D8000020F102002028
:1050C0004E000020CC01002058250020323A00007C
:1050D000323A5A522D33353030D0CDB4F3C6F8B20F
:1050E000C9D1F9C6F7000000040A0020323A5A522A
:1050F0002D33353030D0CDB4F3C6F8B2C9D1F9C6AE
:10510000F72F0000980100203335303046000000B2
:105110002F000000B2C9D1F9CEC4BCFE2E74787441
:10512000000000008C0200200446ACB9F54800687D
:10513000C06818B90120F449087002E00220F24961
:105140000870F0480068C168EE48006810F020FB65
:105150000020EE49088069E00220ED4948705020A7
:10516000FBF764FA2821EB48FBF77EFA10E7EA49DF
:1051700001228868AFF2AC010FF0E0FFAFF2B0009F
:1051800010F03DFE04460A200EF0C8FA0020E34964
:105190000872AFF2A80104A815F05BFEE04801A96F
:1051A000026808200EF076FCAFF2A40104A815F006
:1051B00074FE01A904A815F070FE04A810F01FFEEB
:1051C00004460A200EF0AAFAAFF2BC0104A815F0BA
:1051D00064FED4A104A815F060FE132204A9C948F6
:1051E00000680FF0D6FF0446ACB9C6480068C06836
:1051F00018B90120C449087002E00220C2490870B1
:10520000C0480068C168BF48006810F0C1FA0020BB
:10521000BE4908800AE00220BD4948705020FBF7D3
:1052200005FA2821BB48FBF71FFAB1E6C148008800
:10523000C1490988884207DDBF480588BD48008804
:10524000BD490880BB4805800A20B14948709FE6E7
:10525000AF4840780A287DD1B6480288042140F240
:10526000A14009F005F8B5480078002848D1AA49BE
:1052700001228868AFF2AC110FF060FF0020A7494F
:105280000872AFF2981104A815F0E3FDA44801A933
:10529000026808200EF0FEFBAFF2941104A815F08E
:1052A000FCFD01A904A815F0F8FDAFF29C1104A8BB
:1052B00015F0F3FDAFF2A41104A815F0EEFD1322D2
:1052C00004A9904800680FF064FF044654B102201E
:1052D0008F4948705020FBF7A9F928218D48FBF72A
:1052E000C3F955E687480068C1688648006810F031
:1052F0004FFA914801888F4800880BF0F9F84DE08B
:10530000854901228868AFF23C210FF017FFAFF208
:10531000402010F074FD0446002080490872AFF26E
:10532000342104A815F095FD7D4801A902680820E4
:105330000EF0B0FBAFF2302104A815F0AEFD01A9CC
:1053400004A815F0AAFDAFF2382104A815F0A5FDB8
:1053500074A100E032E004A815F09FFD132204A917
:10536000684800680FF015FF044654B102206849F0
:1053700048705020FBF75AF928216648FBF774F96A
:1053800006E660480068C1685E48006810F000FAF0
:1053900069480188674800880BF0AFFD5A480078DB
:1053A00003280AD10C205A4948705220FBF73EF9D5
:1053B00028215848FBF758F9EAE5E9E554484078D0
:1053C0000C280CD153480078012808D100205149FD
:1053D00008704F4948705A490878FBF727F900BF11
:1053E000D6E530B59DB05748407808B91DB030BDFE
:1053F00054484078012806D1534800785049088025
:105400000320504948704F484078032815D14F4831
:10541000007801280AD004204A4948704F20FBF741
:1054200005F928213B48FBF71FF905E0092045490C
:1054300048705120FBF7FAF8D8E742484078042832
:1054400003D04048407802280ED132480078012825
:1054500009D100202F49087039490878FBF7E6F890
:10546000002038494870C1E736484078092877D18C
:1054700032480078002875D1274901228868AFF2A8
:10548000B4310FF05BFEAFF2B83010F0B8FC044658
:105490000A200EF043F9002020490872AFF2B4311F
:1054A00004A815F0D6FC1E4801A9026808200EF0D9
:1054B000F1FAAFF2AC3104A815F0EFFC01A904A891
:1054C00015F0EBFC04A810F09AFC04460A200EF03C
:1054D00025F9AFF2C43104A815F0DFFC1CA104A823
:1054E00015F0DBFC132204A9064800680FF051FEFA
:1054F0000446B4BB03480068C068A0BB0120024951
:10550000087034E08C0200202502002030020020C8
:10551000A70000204E00002058250020040A00208B
:1055200098010020B2C9D1F9CEC4BCFE2E637376B7
:1055300000000000C8000020CA000020CC010020AC
:10554000D8000020AA00002096000020F1020020D0
:10555000B5F4B5E7BCC7C2BC2E7478740000000077
:105560008CE00FE019E0FFE70220FB490870FB48E0
:105570000068C168F948006810F00AF90020F8498D
:10558000088069E00220F74948705020FBF74EF888
:105590002821F548FBF768F828E7F44901228868D4
:1055A000AFF2D8410FF0CAFDAFF2DC4010F027FC9B
:1055B00004460A200EF0B2F80020ED490872AFF25E
:1055C000D44104A815F045FCEA4801A90268082066
:1055D0000EF060FAAFF2D04104A815F05EFC01A90C
:1055E00004A815F05AFC04A810F009FC04460A208F
:1055F0000EF094F8AFF2E84104A815F04EFCDEA1DD
:1056000004A815F04AFC132204A9D44800680FF03E
:10561000C0FD0446ACB9D1480068C06818B9012083
:10562000CD49087002E00220CB490870CB480068E1
:10563000C168CA48006810F0ABF80020C84908806B
:105640000AE00220C74948705020FAF7EFFF2821EE
:10565000C548FBF709F8C9E6CB480088CB4909885B
:10566000884207DDC9480588C7480088C7490880BF
:10567000C54805800A20BB494870B7E6B94840785C
:105680000A287DD1C0480288042140F2A14008F0D8
:10569000EFFDBF480078002848D1B449012288684E
:1056A000AFF2D8510FF04AFD0020B1490872AFF2B5
:1056B000C45104A815F0CDFBAE4801A9026808202A
:1056C0000EF0E8F9AFF2C05104A815F0E6FB01A90D
:1056D00004A815F0E2FBAFF2C85104A815F0DDFBF9
:1056E000AFF2941104A815F0D8FB132204A99B482B
:1056F00000680FF04EFD044654B1022099494870ED
:105700005020FAF793FF28219748FAF7ADFF6DE68E
:1057100092480068C1689148006810F039F89B48C9
:105720000188994800880CF0B8F84DE08F490122B3
:105730008868AFF268610FF001FDAFF26C6010F0A5
:105740005EFB044600208A490872AFF2606104A83B
:1057500015F07FFB874801A9026808200EF09AF92E
:10576000AFF25C6104A815F098FB01A904A815F03C
:1057700094FBAFF2646104A815F08FFB7EA100E0FA
:1057800032E004A815F089FB132204A973480068CD
:105790000FF0FFFC044654B10220724948705020BB
:1057A000FAF744FF28217048FAF75EFF1EE66B48BF
:1057B0000068C168694800680FF0EAFF7348018813
:1057C000714800880CF026FC6348007803280AD151
:1057D0000C20644948705220FAF728FF28216248BB
:1057E000FAF742FF02E601E65E4840780C280CD149
:1057F0005D480078012808D100205B4908705949AC
:10580000487064490878FAF711FF00BFEEE510B55B
:105810006148407818B900205F49887010BD5F4822
:10582000407810B95E48407810B1FCF72BFC04E0DA
:105830005948807808B9FCF725FC5A4800780128B7
:1058400016D10020574908705348C0885249098929
:10585000884208DD00205049487001205249086004
:10586000FCF710FCDAE74C48C088401C4A49C88065
:1058700049484078012809D100204B4908600A2195
:105880004A48FAF7F1FE02204349487042484078FE
:10589000022809D145480078012805D10020434954
:1058A000087003203C4948703B48407803281AD1CF
:1058B00000203F4908600A200DF030FF01203D49DB
:1058C000C1F8B8020A200DF029FF0020384908600D
:1058D00004203149487001213448FAF7C5FE002000
:1058E0002D49C87088802C484078042867D12F48FB
:1058F0000078012863D100202C4908702C487C389E
:10590000006848B900202449C870084680780228F9
:105910000FD0002088700CE01F48C078401C1E4942
:10592000C8700846C078142803DD0020C870012024
:1059300088701948807870B917488088401C1649CB
:10594000888008468088B0F5967F38DD032048704F
:105950000220887033E02FE0250200208C02002016
:1059600030020020AA0000204E0000205825002010
:10597000040A002098010020B5F4B5E7BCC7C2BCFA
:105980002E63737600000000C8000020CA000020CB
:10599000CC010020D800002090090020AE0000209B
:1059A000B40000206C000020AC8240427200002055
:1059B000B8024242000042420020FE49888000BFF7
:1059C0002CE710B5FC48407800B910BDFA48407883
:1059D000012824D1F948007830B90120F74908702E
:1059E000F7480078F749088008F0FAFFF148407856
:1059F00008B9FCF74BFB0020EF4988801421F248DE
:105A0000FAF732FE0220EC4948704620FAF70EFE03
:105A1000EE480288042140F2A14008F029FCE64843
:105A20004078022836D1E3488078012819D1042033
:105A3000E14948704C20FAF7F9FD09F021F80120FE
:105A4000E3490880E1480088E2490988884221DD6D
:105A5000E0480488DD480088DE490880DB4804808F
:105A600018E0D9480078012814D10020D6490870E0
:105A7000D1488088401CD0498880084680880F28FB
:105A800008DD032048704B20FAF7D0FD1E21CE48D8
:105A9000FAF7EAFDC8484078032810D1CA480078D0
:105AA00001280BD10020C8490870C6490878FAF7C8
:105AB000BDFD0020C0494870C049087085E7BE4858
:105AC0004078042818D1C1480288042140F2A1403E
:105AD00008F0CEFBBF480188BC48008802F053FBA9
